:020000040800F2
:100000004004002001010008090100080B0100085C
:100010000D0100080F010008110100080000000098
:1000200000000000000000000000000013010008B4
:100030001501000800000000170100081901000860
:100040001B0100081B0100081B0100081B01000820
:100050001B0100081B0100081B0100081B01000810
:100060001B0100081B0100081B0100081B01000800
:100070001B0100081B0100081B0100081B010008F0
:100080001B0100081B0100081B0100081B010008E0
:100090001B0100081B0100081B0100081B010008D0
:1000A0001B0100081B0100081B0100081B010008C0
:1000B0001B0100081B0100081B0100081B010008B0
:1000C0001B0100081B0100081B0100081B010008A0
:1000D0001B0100081B0100081B0100081B01000890
:1000E0001B0100081B0100081B010008DFF80CD0F1
:1000F00000F018F8004800473908000840040020C4
:100100000648804706480047FEE7FEE7FEE7FEE7B1
:10011000FEE7FEE7FEE7FEE7FEE7FEE799040008DC
:10012000ED000008064C074D06E0E06840F00103D2
:1001300094E8070098471034AC42F6D3FFF7DAFF93
:100140005809000878090008F0B581B000F05BF9A3
:1001500090BB40F21407C2F20007B81D00F018FA75
:10016000F81D00F015FA07F1080000F011FA4FF63B
:10017000FF7007214AF201023B4600BF1C78604035
:10018000082400BF054682EA5000EE0708BF680851
:10019000013CF7D101390C0603F10103EED1B7F8A8
:1001A000071080B2814207D197F90600B0F1FF3FF6
:1001B00008DDC0B2032811D21F2001B0BDE8F04015
:1001C00000F0F8B94FF4406444F0006000F0ECF83F
:1001D00004F58064B4F5FE3FF6D102E0800200F041
:1001E000E3F87920E9E70000F0B581B000F00BF901
:1001F00000284BD140F21407C2F20007B81D00F0EE
:10020000C7F9F81D00F0C4F94FF6FF7006214AF255
:1002100001023B461C786040082400BF054682EA84
:100220005000EE0708BF6808013CF7D101390C0601
:1002300003F10103EED1F98880B2814226D116A1E3
:100240001548D1E90123C7E90002087BBB60387378
:100250000A20787342F62E60C0F62E20C7F80E00F2
:1002600042F63160C2F63260C7F8120043F2300045
:10027000F882532000F09EF9012400BF385D00F0A1
:1002800099F90134182CF9D101B0F0BD1F2001B04B
:10029000BDE8F04000F08EB953544D333246313052
:1002A0003343385436000000F0B581B000F0ABF8AD
:1002B00058BB40F21407C2F20007B81D00F068F9FD
:1002C000F81D00F065F94FF6FF7006214AF20102B1
:1002D0003B4600BF1C786040082400BF054682EA08
:1002E0005000EE0708BF6808013CF7D101390C0641
:1002F00003F10103EED1F98880B2814205D1792062
:1003000000F058F900F044FAFEE71F2001B0BDE804
:10031000F04000F04FB90000B0B500F074F80028CC
:100320003DD140F214050624C2F20005281900F060
:100330002FF901341A2CF9D140F2140CC2F2000C3E
:100340004FF6FF704FF0180E4AF20103614600BFEE
:100350000A785040082200BF044683EA5000E507AF
:1003600008BF6008013AF7D1AEF1010E5FEA0E62F4
:1003700001F10101ECD1BCF8182040F2100183B268
:10038000C2F200019A42088009D1BCF806000CF1C3
:100390000801000400BA00F025F9792000E01F20D0
:1003A000BDE8B04000F006B942F20401C4F2020117
:1003B0008A68D207FCD1CA68120609D540F2231216
:1003C000C4F267520A6048F6AB12CCF6EF520A60EC
:1003D000CA6842F00202CA600861C86840F0400082
:1003E000C86000BF8868C007FCD18868800644BF29
:1003F00020208860C86820F00200C860C86840F00B
:100400008000C860704710B540F21404C2F20004C6
:10041000A01C00F0BDF8E01C00F0BAF8201D00F0B0
:10042000B7F8601D00F0B4F8D4F802004AF6CD31F8
:1004300000BAC4F22131401A18BF012010BD80B5A6
:1004400040F2000143F60000C2F2000146F20E3213
:10045000C4F20100CA80028892061BD540F2080C43
:10046000C2F2000C83889CF8000040F2140E095C74
:10047000DAB2C2F2000E91420EF8003004BF013031
:100480008CF80000C0B2082804D1792000F092F85E
:10049000002080BD012080BD82B041F20000C4F286
:1004A00002000168002241F0010101604168CFF6BD
:1004B000FF021140416001684FF6FF72CFF6F6620D
:1004C00011400160016821F480210160416821F43C
:1004D000FE0141604FF41F018160002101910091F4
:1004E000016841F480310160016801F4003100913C
:1004F000019901310191009919B90199B1F5A06FE4
:10050000F2D10168890354BF0021012100910099B3
:10051000012934D142F20001C4F202010A6842F01A
:1005200010020A600A6822F007020A600A6842F0B4
:1005300002020A604168416041684160416841F4DB
:1005400080614160416821F47C114160416841F45F
:10055000E8114160016841F0807101600168890122
:10056000FCD5416821F003014160416841F002017E
:10057000416000BF416801F00C010829FAD14EF634
:100580000850CEF200004FF00061016002B07047E9
:1005900043F600020146C4F2010200BF1088830640
:1005A000FCD500F00500B0FA80F0928840090A708E
:1005B0007047000043F60001C4F201010A881206E8
:1005C000FCD540F60C42C4F20102136843F020034C
:1005D0001360888008884006FCD5106820F0200051
:1005E0001060704780B542F20402C4F2020200BFFC
:1005F0009368DB07FCD1D3681B0609D540F22313AF
:10060000C4F26753136048F6AB13CCF6EF53136094
:10061000D3684FF0000E43F001034FF0200CD3607D
:1006200031F81E30038000BF9368DB07FCD193686C
:100630000EF1010E9B0648BFC2F808C0BEF1080FBC
:1006400000F10200ECD1D06820F00100D060D06849
:1006500040F08000D06080BD40F60040C4F2010050
:100660004FF04431016041600420C4F20100016890
:1006700021F00401016041F21400C4F2020001689B
:1006800021F008010160416821F0010141607047DB
:1006900041F20000C4F20200016801F47F4183319D
:1006A000016000214160704741F21C00C4F2020069
:1006B000016821F0010101604FF0804000210180BC
:1006C0002420C4F20000018081804FF6FF71018177
:1006D000704743F60800C4F20100002181800181C7
:1006E000018041F21800C4F20200016821F4804147
:1006F0000160704741F21800C4F20200016841F045
:100700000101016001680421C4F201010A6822F0BC
:10071000E0620A600A6842F000720A60026842F011
:1007200008020260006840F60040C4F2010002685E
:1007300022F440020260026842F440120260C26881
:1007400022F02002C260426822F0406242604268A9
:1007500042F040724260C26842F48042C2600A685D
:1007600042F004020A60016841F00841016001683A
:1007700021F088410160016841F040710160016829
:1007800021F040510160C16841F08001C1607047B3
:1007900041F22400C4F20200016841F0010101604D
:1007A00001688907FCD543F20000C4F200004CF652
:1007B000CC41016045F2555101600721416064213F
:1007C000816000BFC1680029FCD14AF6AA210160FE
:1007D0007047704741F21C00C4F20200016841F00A
:1007E000010101602420C4F200000121018048F6CB
:1007F000A041818040F2E93101814FF080400188C1
:1008000041F001010180704741F21800C4F202007A
:10081000016841F48041016043F60800C4F2010020
:1008200040F271210180018921F44051018143F29C
:100830000C6181807047000040F6004540F60C4492
:10084000C0F6000540F20C014BF66152C4F20104FF
:1008500072B60020C2F20001C8F2C0722B4600BF7F
:100860001E680E601E68964210D00433B0F5C77F34
:1008700000F10100F4D9FFF7ACFFFFF73BFF206860
:1008800040F480402060FFF7BFFF13E0FFF7A1FFB7
:10089000FFF730FFFFF7B8FFFFF79CFF2426C4F2F5
:1008A000000600BF3088C0087C2837D8FFF7C7FD96
:1008B0000028F7D1FFF7F8FE206840F48040206060
:1008C00040F21404C2F20004651C00BF2046FFF78A
:1008D0005FFE2846FFF75CFE6178207881F0FF011B
:1008E000884211D13B2807DC022811D02B280BD1DC
:1008F000FFF712FDEAE700BF3C280CD0432803D1E4
:10090000FFF722FCE2E700BF1F20FFF753FEDDE701
:10091000FFF76AFCDAE7FFF7C7FCD7E7FFF7B8FE97
:10092000FFF79AFEFFF7D5FEFFF7BEFE286880F3BB
:1009300008886868804700BFFEE702E008C8121F09
:1009400008C1002AFAD170477047002001E001C1B8
:10095000121F002AFBD17047780900080000002010
:10096000080000003A09000880090008080000207B
:10097000380400004A0900086E914321ABCD000005
:04000005080000ED02
:00000001FF
